:100000000C9435000C945D000C945D000C945D0024
:100010000C945D000C945D000C945D000C945D00EC
:100020000C945D000C945D000C945D000C945D00DC
:100030000C945D000C945D000C945D000C945D00CC
:100040000C94E5010C945D000C94AB010C947001D0
:100050000C945D000C945D000C945D000C945D00AC
:100060000C945D000C945D002F0211241FBECFEF95
:10007000D8E0DEBFCDBF11E0A0E0B1E0E2E6F6E0FF
:1000800002C005900D92A831B107D9F721E0A8E18F
:10009000B1E001C01D92AB3CB207E1F710E0C5E34F
:1000A000D0E004C02197FE010E942903C433D10788
:1000B000C9F70E946A020C9426030C94000008956C
:1000C0000F931F93CF93DF93FC01A685B7858D0116
:1000D000005C1F4FE8018881998101968F739927F1
:1000E000AD014E5B5F4FEA0128813981281739073E
:1000F000D1F3E80128813981A20FB31F6C93A68543
:10010000B785A05CBF4F11969C938E93A689B78943
:100110002C9181E090E0078C02C0880F991F0A940F
:10012000E2F7822B8C9381E081A30488F589E02D8E
:1001300080818064808381E090E0DF91CF911F9186
:100140000F910895FC0181A1882329F0A489B58924
:100150008C9186FFFBCF11A20895FC01A485B58583
:10016000FD01E05CFF4F20813181329680819181D9
:100170002817390779F080819181A80FB91F8C91D8
:10018000208131812F5F3F4F2F73332731832083AD
:1001900090E008958FEF9FEF0895DC011C96ED919C
:1001A000FC911D97DF01A05CBF4F2D913C911197F1
:1001B00012968D919C9111972817390739F08D91DE
:1001C0009C91E80FF91F808190E008958FEF9FEFD9
:1001D0000895FC0124853585F901E05CFF4F80819D
:1001E0009181329620813181821B930B8F739927E5
:1001F000089589EA91E00C94E900CF92DF92EF92A2
:10020000FF920F931F93CF93DF936C01EB017B0160
:10021000E40EF51E00E010E0CE15DF0561F06991F7
:10022000D601ED91FC910190F081E02DC601099578
:10023000080F191FF1CFC801DF91CF911F910F91C6
:10024000FF90EF90DF90CF9008953FB7F8948091A2
:100250001D0190911E01A0911F01B091200126B5B2
:10026000A89B05C02F3F19F00196A11DB11D3FBFEE
:10027000BA2FA92F982F8827820F911DA11DB11D7C
:10028000BC01CD0142E0660F771F881F991F4A9578
:10029000D1F70895CF92DF92EF92FF92CF93DF9341
:1002A0006B017C010E942501EB01C114D104E10422
:1002B000F10479F00E9425016C1B7D0B683E7340B0
:1002C000A0F381E0C81AD108E108F108C851DC4F59
:1002D000ECCFDF91CF91FF90EF90DF90CF9008951A
:1002E0001F920F920FB60F9211242F933F938F936B
:1002F0009F93EF93FF932091610130916201809170
:100300006301909164012817390731F48091C1008D
:100310008F7D8093C10014C0E0916301F09164016E
:10032000EF5DFE4F20818091630190916401019601
:100330008F73992790936401809363012093C60083
:10034000FF91EF919F918F913F912F910F900FBE51
:100350000F901F9018951F920F920FB60F921124B5
:100360002F934F935F938F939F93EF93FF9380917E
:10037000C00082FD1CC02091C6008091A501909113
:10038000A6014091A7015091A80101968F7399276A
:100390004817590771F0E091A501F091A601EB59BA
:1003A000FE4F20839093A6018093A50102C0809107
:1003B000C600FF91EF919F918F915F914F912F9187
:1003C0000F900FBE0F901F9018951F920F920FB6AF
:1003D0000F9211242F933F938F939F93AF93BF93CB
:1003E0008091190190911A01A0911B01B0911C01FB
:1003F0003091180123E0230F2D3720F40196A11D21
:10040000B11D05C026E8230F0296A11DB11D209342
:1004100018018093190190931A01A0931B01B093C6
:100420001C0180911D0190911E01A0911F01B091AE
:1004300020010196A11DB11D80931D0190931E0105
:10044000A0931F01B0932001BF91AF919F918F9115
:100450003F912F910F900FBE0F901F901895E9EAD2
:10046000F1E01382128288EE93E0A0E0B0E0848392
:100470009583A683B78384E091E09183808385E6AA
:1004800091E09587848781E291E09787868785EC64
:1004900090E0918B808B84EC90E0938B828B80EC4E
:1004A00090E0958B848B81EC90E0978B868B82EC2F
:1004B00090E0918F808F86EC90E0938F828F84E024
:1004C000848F83E0858F87E0868F85E0878F81E04A
:1004D00080A30895789484B5826084BD84B58160DA
:1004E00084BD85B5826085BD85B5816085BD8091FF
:1004F0006E00816080936E00109281008091810077
:10050000826080938100809181008160809381006E
:10051000809180008160809380008091B100846030
:100520008093B1008091B00081608093B000809191
:100530007A00846080937A0080917A008260809350
:100540007A0080917A00816080937A0080917A00AD
:10055000806880937A001092C100E091BD01F09113
:10056000BE0181E090E09C010090C90102C0220F11
:10057000331F0A94E2F72083E091B901F091BA01A8
:100580001082E091BB01F091BC012FEC208310920E
:10059000CA01E091BF01F091C00140819C0100902F
:1005A000C50102C0220F331F0A94E2F7242B2083D7
:1005B000E091BF01F091C00140819C010090C60113
:1005C00002C0220F331F0A94E2F7242B2083E0910C
:1005D000BF01F091C00140819C010090C70102C0A1
:1005E000220F331F0A94E2F7242B2083E091BF01EE
:1005F000F091C00120810090C80102C0880F991FAE
:100600000A94E2F780958223808364EF71E080E0B2
:1006100090E00E944A0146E050E060E171E089EA22
:1006200091E00E94FD006DE089EA91E00E94600087
:100630006AE089EA91E00E94600064EF71E080E086
:1006400090E00E944A010E94F900DFCFF8940C94D8
:100650002F03EE0FFF1F0590F491E02D0994F894FD
:02066000FFCFCA
:10066200000000006000FD00E900AD00CD00A20026
:08067200507269766574000006
:00000001FF
