:100000000C9482010C94AA010C94AA010C94AA01EC
:100010000C94AA010C94AA010C94AA010C94AA01B4
:100020000C94AA010C94AA010C94A9030C94140436
:100030000C94AA010C94AA010C94AA010C94AA0194
:100040000C94AA010C94AA010C94AA010C94AA0184
:100050000C94AA010C94AA010C94AA010C943907DF
:100060000C94AA010C94AA010C94AA010C94AA0164
:100070000C94AA010C94AA010C94AA010C94AA0154
:100080000C94AA010C94AA010C94AA010C94AA0144
:100090000C94AA010C94AA010C94AA010C94AA0134
:1000A0000C94AA010C94AA010C94AA013A083D08E8
:1000B000300834085E085E085E08410845084908B3
:1000C0004F0853085E085908070605040100080A8E
:1000D0000B0C0D09000000002300260029002C0055
:1000E0002F0000000000240027002A002D0030000F
:1000F000080B0002020201000904000001020200D4
:100100000005240010010524010101042402060554
:1001100024060001070581031000400904010002C4
:100120000A000000070502024000000705830240A4
:100130000000090402000103000000092101010080
:10014000012265000705840340000105010902A1A1
:10015000010901A1008501050919012903150025DF
:10016000019503750181029501750581030501095A
:1001700030093109381581257F750895038106C03E
:10018000C005010906A1018502050719E029E71547
:100190000025017501950881029501750881039577
:1001A000067508150025650507190029658100C039
:1001B00012010002020000404123368000010102CA
:1001C00000011803410072006400750069006E00B0
:1001D0006F0020004C004C0043000403090422037C
:1001E000410072006400750069006E006F0020001D
:1001F0004C0065006F006E006100720064006F00CB
:10020000120100020000004041233680000101027B
:10021000000100C18081C100000000000000002A30
:100220002B2800000000000000000000000000007B
:10023000000000000000002C9EB4A0A1A2A434A6DF
:10024000A7A5AE362D3738271E1F202122232425AF
:1002500026B333B62EB7B89F8485868788898A8B64
:100260008C8D8E8F909192939495969798999A9B56
:100270009C9D2F3130A3AD350405060708090A0BF4
:100280000C0D0E0F101112131415161718191A1B36
:100290001C1DAFB1B0B50000000000250028002BE8
:1002A000002E0031000000000200080E00000304D0
:1002B00001000B0000000000000000000000000032
:1002C0000000000404040404030405020202020402
:1002D00003020202020606060606060404020202E1
:1002E0000404080201104080401020408040800833
:1002F00002040180402010020110801020404000C4
:100300007C0E600E11241FBECFEFDAE0DEBFCDBF42
:1003100011E0A0E0B1E0EEEEF6E202C005900D9231
:10032000AA3AB107D9F722E0AAEAB1E001C01D92CA
:10033000A636B207E1F711E0C1E8D1E004C0219789
:10034000FE010E942D13C038D107C9F70E94D10CBD
:100350000C94CE0E0C9400000F931F93CF93DF9359
:10036000DB01A40FB51FFB016EEFEA17FB0791F14C
:1003700087FF02C0249101C020810091F6011091F5
:10038000F701C091F401D091F5010C171D07B4F4E9
:100390009091E8009570E1F39091E80092FD1CC007
:1003A0002093F1002091F6013091F7012F5F3F4F2C
:1003B0002F733327232B11F46093E8002091F6016B
:1003C0003091F7012F5F3F4F3093F7012093F601F3
:1003D0003196CBCFCA0102C08FEF9FEFDF91CF9153
:1003E0001F910F91089542E450E060EF70E080E8C3
:1003F0000E94AC0149E150E062E371E080E80E94B4
:10040000AC0183E090E00895615030F02091F1005C
:10041000FC0120830196F8CF289884E68093F801A8
:10042000089583E08093E9008091F200882319F019
:100430008AE38093E80008952091EF013091F00164
:100440008091F1019091F20128173907A9F0E0910C
:10045000F101F091F201E155FE4F80812091F1010F
:100460003091F2012F5F3F4F2F7333273093F2010A
:100470002093F10190E008958FEF9FEF0895209170
:10048000EF013091F0018091F1019091F201281774
:10049000390749F0E091F101F091F201E155FE4F89
:1004A000808190E008958FEF9FEF08958091EF0194
:1004B0009091F0012091F1013091F201821B930B98
:1004C0008F7399270895CF93DF931F92CDB7DEB72F
:1004D0008091EF019091F00101968F73992772E05E
:1004E0005BE6A4E62091F1013091F20182179307B7
:1004F00009F446C02091FA01211123C02FEF3FEFEC
:1005000009C021153105A9F56FBF21303105B1F7BB
:10051000298130E02F3F4FEF340791F1E091EF0157
:10052000F091F001E155FE4F20839093F00180930C
:10053000EF018091EF019091F00101968F7399275F
:10054000D1CF6FB7F8947093E9002091F20030E0BA
:100550001216130614F421E030E0422FFE0131960A
:10056000415078F22898A093F801B091F100B1932E
:10057000F7CF4091F2004111C7CF5093E800C4CFAC
:100580000F90DF91CF9108950895CF92DF92EF926F
:10059000FF920F931F93CF93DF936C01EB017B01CD
:1005A000E40EF51E00E010E0CE15DF0561F0699164
:1005B000D601ED91FC910190F081E02DC6010995E5
:1005C000080F191FF1CFC801DF91CF911F910F9133
:1005D000FF90EF90DF90CF900895823108F0825124
:1005E000E82FF0E0E853FF4FE49180917B00E3FBBC
:1005F000222720F930E095E0220F331F9A95E1F78A
:100600008F7D282B20937B00E770E064E0937C00D3
:1006100080917A00806480937A0080917A0086FDD0
:10062000FCCF809178002091790090E0922B089582
:100630003FB7F8948091AB019091AC01A091AD01CE
:10064000B091AE0126B5A89B05C02F3F19F00196C9
:10065000A11DB11D3FBFBA2FA92F982F8827820F48
:10066000911DA11DB11DBC01CD0142E0660F771F98
:10067000881F991F4A95D1F708950F931F93CF9321
:10068000DF93EC0188819981009729F02A813B81D1
:100690002617370788F48B016F5F7F4F0E94F20F98
:1006A000009761F0998388831B830A832C813D81A5
:1006B000232B11F4FC01108281E001C080E0DF9166
:1006C000CF911F910F910895FC01808191810C942D
:1006D000690FEF92FF920F931F93CF93DF93EC017B
:1006E000198218821B821A821D821C821E82861722
:1006F000970741F1FB01008111810115110511F1ED
:10070000E480F580B7010E943D0328813981811181
:100710000DC02115310519F0C9010E94690F198218
:1007200018821D821C821B821A820CC0FD82EC8200
:10073000B801C901DF91CF911F910F91FF90EF9008
:100740000C94C110DF91CF911F910F91FF90EF900A
:1007500008951F920F920FB60F9211242F933F937B
:100760004F935F936F937F938F939F93AF93BF93B9
:10077000EF93FF938091E1001092E10083FF0FC09F
:100780001092E90091E09093EB001092EC0092E35C
:100790009093ED001092FA0198E09093F00082FFA0
:1007A00032C083E08093E9008091F200882319F041
:1007B0008AE38093E8009FB7F89482E08093E90091
:1007C0008091F2009FBF882321F08FEF91E00E947B
:1007D00063028091F901882339F08091F9018150F9
:1007E0008093F901882369F08091F801882359F0FA
:1007F0008091F80181508093F801811104C0289AFA
:1008000002C05D9AF1CFFF91EF91BF91AF919F919F
:100810008F917F916F915F914F913F912F910F90A9
:100820000FBE0F901F9018951F920F920FB60F9248
:100830001124EF92FF921F932F933F934F935F9357
:100840006F937F938F939F93AF93BF93EF93FF9398
:10085000CF93DF93CDB7DEB76197DEBFCDBF1092E8
:10086000E9008091E80083FF56C168E0CE010A9656
:100870000E94040282EF8093E8009A8597FF05C0EA
:100880008091E80080FFFCCF03C08EEF8093E800EA
:10089000892F807609F0B2C08B85811105C0109236
:1008A000F1001092F10030C1282F2D7F213009F482
:1008B0002BC1853049F48091E80080FFFCCF8C8506
:1008C00080688093E30020C1863009F06DC01D85EB
:1008D000E888F9881092E9001092F7011092F60169
:1008E000123091F51092F5011092F4010E94F3017B
:1008F00099E0BE016F5F7F4FFB01292F11922A956E
:10090000E9F799831A8391E09E8390E898879AEF9C
:1009100099872091F6013091F701275F3F4F3C8383
:100920002B838D831092E9001092F7011092F6014B
:10093000F092F501E092F40149E050E080E00E947D
:10094000AC010E94F301E0C0F092F501E092F401E5
:10095000123259F445E650E06BE471E080E80E9401
:10096000AC01892B09F4D4C0CFC0113069F4888957
:100970009989089711F41093F3018091F301811183
:10098000B5C060E072E0BAC0133009F0C1C08C8518
:10099000882309F4AEC0823009F4AEC0813009F07A
:1009A000B7C062EC71E0AAC0873009F4B1C08830EA
:1009B00021F481E08093F100A7C0893009F0A4C040
:1009C000937009F0A5C0E3E1F2E081E031E096E345
:1009D0008093E9003093EB0024912093EC009093F6
:1009E000ED008F5F3196853099F78EE78093EA00AE
:1009F0001092EA008C858093FA0186C088899989D3
:100A00001092E9001092F7011092F6019093F5010F
:100A10008093F4018E85811159C08B859A85913A16
:100A200049F4813209F074C047E050E060E071E0C1
:100A300080E068C0913209F06BC0803269F4809127
:100A4000E80082FFFCCF67E080E091E00E940402B2
:100A50008BEF8093E80058C0823209F059C08C8532
:100A6000809307018091000190910101A091020102
:100A7000B0910301803B9440A105B10509F044C049
:100A80008091070180FD11C087E797E790930108E7
:100A9000809300089BE088E10FB6F894A8958093B6
:100AA00060000FBE909360002FC00FB6F894A89519
:100AB00080916000886180936000109260000FBE9A
:100AC000A89510920108109200081EC0823001F50E
:100AD0008B859A85913A21F48D7F8130C9F414C0B9
:100AE0009132B1F48A50823098F40EC060EB71E01C
:100AF00005C06AED71E002C06EED71E0FB0144914A
:100B000050E080E80E94AC018EEF8093E80003C0C3
:100B100081E28093EB0061960FB6F894DEBF0FBEC2
:100B2000CDBFDF91CF91FF91EF91BF91AF919F9199
:100B30008F917F916F915F914F913F912F911F9175
:100B4000FF90EF900F900FBE0F901F901895CF93CE
:100B5000DF9390E0FC01EF51FD4F2491FC01ED5338
:100B6000FD4F8491882361F190E0880F991FFC016B
:100B7000EE51FF4FC591D491FC01E956FD4FA5916F
:100B8000B491611109C09FB7F894888120958223A0
:100B90008883EC912E230BC0623061F49FB7F894E8
:100BA0008881322F309583238883EC912E2B2C93D0
:100BB0009FBF06C08FB7F894E8812E2B28838FBF84
:100BC000DF91CF910895CF92DF92EF92FF921F9322
:100BD000CF93DF93EC011F81662311F0912F01C0A9
:100BE00090E0288530E0220F331F2C523F4FA0E0C9
:100BF000B0E0F90145915491FA0180818123AD0162
:100C000060E070E098130FC01196CD84DE84EF840D
:100C1000F8884C155D056E057F0558F33FEF2FEF03
:100C20008FEF9FEF03C03A2F252FCB01632F722F39
:100C3000DF91CF911F91FF90EF90DF90CF900895BB
:100C4000EF92FF920F931F93CF93DF93EC011982E2
:100C500018821B821A821D821C821E8261157105F8
:100C600049F18B01FB0101900020E9F731977F01E9
:100C7000E61AF70AB7010E943D03288139818111E4
:100C80000DC02115310519F0C9010E94690F1982A3
:100C900018821D821C821B821A820CC0FD82EC828B
:100CA000B801C901DF91CF911F910F91FF90EF9093
:100CB0000C94C110DF91CF911F910F91FF90EF9095
:100CC0000895CF92DF92EF92FF92CF93DF936B0163
:100CD0007C010E941803EB01C114D104E104F1046A
:100CE00079F00E9418036C1B7D0B683E7340A0F3E3
:100CF00081E0C81AD108E108F108C851DC4FECCFF7
:100D0000DF91CF91FF90EF90DF90CF9008957F9289
:100D10008F929F92AF92BF92CF92DF92EF92FF920B
:100D20000F931F93CF93DF93D82E8B017A0180917D
:100D3000FA01882391F0C42FDF2D8AEFC82E8D2D64
:100D40008770B82E90E4992E8D2D8072882E2AE31C
:100D5000A22E8D2D8074782E1BC08FEF9FEF56C072
:100D60008FB7F894B092E9009091E80095FF13C016
:100D70009091F200292D291B8FBF21110EC0CA941A
:100D8000CC2059F361E070E080E090E00E946106C1
:100D9000209731F732C020E0EFCF822F90E0C817C4
:100DA000D9070CF42C2F822F90E0C81BD90B3FB72A
:100DB000F894B092E900882029F02150A0F0109218
:100DC000F100FBCFF801D7FE0AC0215050F044914A
:100DD0004093F1003196F9CF41914093F1002150B9
:100DE000D8F7080F191F8091E80085FF0CC02097E5
:100DF00011F4711008C03FBFCBCF5D9884E680939B
:100E0000F901C70103C0A092E800F5CFDF91CF91AF
:100E10001F910F91FF90EF90DF90CF90BF90AF9018
:100E20009F908F907F9008950F931F93CF93DF93A0
:100E30001F92CDB7DEB78C016983809107018823AB
:100E400059F041E050E0BE016F5F7F4F83E00E94A8
:100E50008706181619063CF081E090E0F8019383AC
:100E6000828380E090E00F90DF91CF911F910F91EE
:100E700008951F920F920FB60F9211242F933F9354
:100E80008F939F93AF93BF938091FB019091FC014F
:100E9000A091FD01B091FE013091AA0123E0230F42
:100EA0002D3720F40196A11DB11D05C026E8230FA2
:100EB0000296A11DB11D2093AA018093FB0190937E
:100EC000FC01A093FD01B093FE018091AB019091D4
:100ED000AC01A091AD01B091AE010196A11DB11D73
:100EE0008093AB019093AC01A093AD01B093AE01A0
:100EF000BF91AF919F918F913F912F910F900FBE16
:100F00000F901F901895DC0115966C9315978BE048
:100F100016968C93169770E0FB01EF51FD4FE4910C
:100F20001796EC931797FB01ED53FD4F64911896BC
:100F30006C93189740E85EE360E070E01D964D9377
:100F40005D936D937C9350970895EF92FF921F935A
:100F5000CF93DF93EC01162FE881F9810480F581AE
:100F6000E02D09957C01E881F9810680F781E02D6B
:100F7000612FCE010995C7019927DF91CF911F916C
:100F8000FF90EF9008958F929F92AF92BF92CF9271
:100F9000DF92EF92FF920F931F93CF93DF93CDB722
:100FA000DEB7C054D1400FB6F894DEBF0FBECDBF40
:100FB0002FB7F8944091FB015091FC016091FD0125
:100FC0007091FE012FBFFC010185128523853485B8
:100FD0006A017B01C01AD10AE20AF30AE0EDCE16DB
:100FE000E7E0DE06E104F10418F4FC01818917C191
:100FF0008C01FC01418752876387748714821382B6
:1010000012821182108262E085810E94A70561E050
:1010100070E080E090E00E94610661E0F801858167
:101020000E94A705F801258130E0F901EB55FD4F3D
:101030008491F901EF51FD4F4491F901ED53FD4FBA
:101040002491222309F449C08823C1F190E0FC01D6
:101050003197EE30F10590F5EA5AFF4F0C942D13BD
:10106000809180008F7703C0809180008F7D809376
:10107000800024C084B58F7702C084B58F7D84BD85
:101080001DC0809190008F7707C0809190008F7D68
:1010900003C080919000877F809390000FC0809163
:1010A000C0008F7703C08091C0008F7D8093C00007
:1010B00005C08091C200877F8093C200E22FF0E0DC
:1010C000EE0FFF1FE956FD4FA591B4919FB7F8941D
:1010D0008C91409548234C939FBFF80186818551A0
:1010E000823028F48AE291E10197F1F706C064E1C9
:1010F00070E080E090E00E94610662E0F801858186
:101100000E94A705F801828990E0019739F0880FC5
:10111000991F880F991F02970197F1F7F89460E0E3
:10112000C8010E94E3056F3F7F4F8F4F9F4F21F40F
:10113000F801118A789444C061E0C8010E94E30577
:101140006F3F7F4F8F4F9F4F99F3CE0101967C01E8
:101150005E019FEBA91A9EEFB90A670160E0C80122
:101160000E94E305F601608371838283938361E0CB
:10117000C8010E94E305F601648375838683978323
:10118000F8E0CF0ED11CCA14DB0441F7789420E0BC
:1011900030E0F70180809180A280B3804481558146
:1011A00066817781FFEF8F169F06AF06BF0631F08D
:1011B0004F3F8FEF58076807780721F4F801118A2D
:1011C00080E02DC0F90183E0F595E7958A95E1F778
:1011D000E00FF11F8081880F84169506A606B706DA
:1011E00008F4816080832F5F3F4FF8E0EF0EF11C21
:1011F0002832310571F6F801248130E04081818187
:1012000090E0840F911D4281840F911D4381840FD2
:10121000911D99272817390789F681E0818BC05CD9
:10122000DE4F0FB6F894DEBF0FBECDBFDF91CF917A
:101230001F910F91FF90EF90DF90CF90BF90AF90F4
:101240009F908F9008950F931F93CF93DF931F92DA
:10125000CDB7DEB78C01FC0116821782108611868D
:1012600012861386148282E0898341E050E0BE0139
:101270006F5F7F4F84E00E948706B8016C5F7F4FED
:1012800048E050E084E40E9487060F90DF91CF9100
:101290001F910F9108950F931F93CF93DF931F9288
:1012A000CDB7DEB7DC01683810F068582DC0E62FE6
:1012B000F0E067FF11C0E058F10981E090E001C063
:1012C000880FEA95EAF714969C911497892B149647
:1012D0008C93149760E018C0E95EFD4F6491611132
:1012E00009C081E090E013969C938E93129780E062
:1012F00090E04EC067FF08C014968C9114978260EE
:1013000014968C9314976F7716968C91169768178E
:1013100051F117968C911797681729F118968C91AF
:101320001897681701F119968C9119976817D9F0D9
:101330001A968C911A976817B1F01B968C911B978F
:10134000681789F0FD01369680E090E02191211127
:1013500005C0FD01E80FF91F668305C001968630C0
:101360009105A1F7BECF8D0182E0898341E050E075
:10137000BE016F5F7F4F84E00E948706B8016C5FFB
:101380007F4F48E050E084E40E94870681E090E0CF
:101390000F90DF91CF911F910F9108950F931F939D
:1013A000CF93DF931F92CDB7DEB7DC01683810F022
:1013B000685825C0E62FF0E067FF12C0E058F10939
:1013C00081E090E001C0880FEA95EAF780951496D5
:1013D0009C911497892314968C93149760E00FC006
:1013E000E95EFD4F6491662361F167FF08C01496C2
:1013F0008C9114978D7F14968C9314976F77FD01C1
:1014000086E0662321F09681691301C0168281501F
:1014100031968111F6CF8D0182E0898341E050E061
:10142000BE016F5F7F4F84E00E948706B8016C5F4A
:101430007F4F48E050E084E40E94870681E090E01E
:1014400002C080E090E00F90DF91CF911F910F914B
:101450000895CF93DF936DE08FEF91E00E94140722
:10146000EC016AE08FEF91E00E9414078C0F9D1F42
:10147000DF91CF910895CF93DF93EC0162E08D81EE
:101480000E94A7052FB7F8948091FB019091FC0171
:10149000A091FD01B091FE012FBF805D9740A10991
:1014A000B10989879A87AB87BC8787E38A8BDF91ED
:1014B000CF910895009769F0FC0101900020E9F7B1
:1014C0003197AF01481B590BBC018FEF91E00C9491
:1014D000C50280E090E008958F929F92AF92BF92F4
:1014E000EF92FF920F931F93CF93DF93CDB7DEB7A9
:1014F000A1970FB6F894DEBF0FBECDBF162F042FF5
:1015000019A2423008F40AE07E0121E2E20EF11C49
:10151000802E912CA12CB12C612FA50194010E9449
:101520000B13029F1019112481E0E81AF1081A30F8
:1015300014F4105D01C0195CF7011083122F732F92
:10154000CA01232B242B252B39F7C7010E945A0AE5
:10155000A1960FB6F894DEBF0FBECDBFDF91CF913D
:101560001F910F91FF90EF90BF90AF909F908F9041
:1015700008954F925F926F927F928F929F92AF9257
:10158000BF92CF92DF92EF92FF92CF93DF936B01E6
:101590007C01B42E9B01AC010E940613882319F034
:1015A0008AE991E027C026013701E89477F82FEF08
:1015B0003FEF4FE75FE7C301B2010E9406138111BD
:1015C0000DC02FEF3FEF4FE75FE7C301B2010E946D
:1015D000351118161CF48EE991E00CC02FEF3FEF87
:1015E0004FE75FE4C701B6010E949412181694F405
:1015F00082EA91E0DF91CF91FF90EF90DF90CF9062
:10160000BF90AF909F908F907F906F905F904F9022
:101610000C945A0A2FEF3FEF4FE75FECC701B6017A
:101620000E94351187FDE4CF20E030E0A901C70119
:10163000B6010E94351187FF0BC06DE28FEF91E07C
:101640000E941407EC01F7FAF094F7F8F09402C046
:10165000C0E0D0E0A12C60E070E080E09FE3BA142D
:1016600041F020E030E040E251E40E943A11A394BE
:10167000F6CFA70196010E94C9106B017C010E9460
:10168000B3112B013C014AE00E946C0AC80FD91F1C
:10169000BB2009F450C0C301B2010E94E2119B01BA
:1016A000AC01C701B6010E94C8102B013C0186EABB
:1016B00091E00E945A0AC80FD91FFB2C20E030E0AD
:1016C00040E251E4C301B2010E9499122B013C0196
:1016D0000E94AC114B01770FAA08BB08B7FE15C0DA
:1016E0006DE28FEF91E00E9414076C018827992723
:1016F000DC0188199909AA09BB094AE0BC01CD019E
:101700000E946C0A8C0D9D1D05C04AE0C501B40104
:101710000E946C0AC80FD91FC501B4010E94E411D0
:101720009B01AC01C301B2010E94C8102B013C0116
:10173000FA94F110C3CFCE01DF91CF91FF90EF90DB
:10174000DF90CF90BF90AF909F908F907F906F90E1
:101750005F904F9008958F929F92AF92BF92CF92D9
:10176000DF92EF92FF920F931F93CF93DF93E62FB9
:10177000EE0FE72FEE1FEF3F09F43BC06801790140
:101780004A015B018C01C0E0D0E0F80184819581C1
:10179000C817D90780F480819181009729F0FC0156
:1017A000EC0FFD1F608101C060E08FEF91E00E94AF
:1017B00014072196EACF88EA91E00E945A0A42E093
:1017C000C501B4010E94B90A8E2D880F8F2D881F84
:1017D0008F3F49F088EA91E00E945A0A42E0C7012F
:1017E000B6010E94B90A6EEE72E080E090E00E94BD
:1017F000610686E591E0DF91CF911F910F91FF90F7
:10180000EF90DF90CF90BF90AF909F908F900C940F
:101810005A0ACF92DF92EF92FF921F93CF93DF93FA
:10182000EC010E94C307882309F466C08E818C30C6
:1018300009F442C018F48B30C1F05EC0855182308B
:1018400008F05AC01A81612F6F7770E0762F6627F3
:101850008B81682B80E090E00E94E2112DEC3CEC43
:101860004CEC5DE30E94991243C06A8170E080E015
:1018700090E00E94E2116B017C01CB81C7FF0AC09E
:101880009B01AC0160E070E080E89FEB0E94C81013
:101890006B017C016C2F6F7070E080E090E00E9423
:1018A000E4112DEC3CEC4CEC5DE30E949912A70195
:1018B00096010E94C91024C01A816B816F7070E07C
:1018C00080E090E00E94E4112DEC3CEC4CEC5DE3F8
:1018D0000E9499126B017C01612F70E080E090E022
:1018E0000E94E2119B01AC01C701B6010E94C91020
:1018F00017FF06C0905804C060E070E080EC9FE7DE
:10190000DF91CF911F91FF90EF90DF90CF900895DE
:10191000CF92DF92EF92FF92CF93DF93EC010E9480
:10192000C307882399F18E818B3080F18D3098F038
:101930008551823058F56881798176276727762727
:1019400080E090E00E94E2112DEC3CEC4CEC5DE379
:101950000E9499121FC0698170E080E090E00E94AF
:10196000E4112DEC3CEC4CEC5DE30E9499126B0110
:101970007C01688170E080E090E00E94E4119B01AE
:10198000AC01C701B6010E94C91004C060E070E05C
:1019900080EC9FE7DF91CF91FF90EF90DF90CF90A9
:1019A0000895CF93DF93CDB7DEB727970FB6F8949E
:1019B000DEBF0FBECDBF789484B5826084BD84B590
:1019C000816084BD85B5826085BD85B5816085BD3A
:1019D00080916E00816080936E00109281008091F2
:1019E000810082608093810080918100816080937A
:1019F00081008091800081608093800080919100BF
:101A00008260809391008091910081608093910029
:101A1000809190008160809390008091C1008460EB
:101A20008093C1008091C10082608093C100809149
:101A3000C10081608093C1008091C3008160809368
:101A4000C3008091C00082608093C0008091C2007A
:101A500081608093C20080917A00846080937A00D4
:101A600080917A00826080937A0080917A00816010
:101A700080937A0080917A00806880937A00109237
:101A8000FA0181E08093D70080EA8093D80082E158
:101A900089BD09B400FEFDCF61E070E080E090E018
:101AA0000E94610680E98093D8008CE08093E20078
:101AB0001092E000559A209A86E492E00E943B0A38
:101AC00083E392E00E943B0A80E292E00E943B0A9C
:101AD0008DE092E00E943B0A0E94290A80E0E82EF5
:101AE00080E0F82E6EEE72E080E090E00E946106E9
:101AF00086E591E00E945A0A86E492E00E94880CF2
:101B00002B013C0186E492E00E94090C4B015C0130
:101B100067E371E0CE0101960E946903930182019F
:101B2000B501A401CE0101960E94AB0BCE01019636
:101B30000E94640383E392E00E94880C2B013C0125
:101B400083E392E00E94090C4B015C016EE271E0BC
:101B5000CE0101960E94690393018201B501A4019F
:101B6000CE0101960E94AB0BCE0101960E94640348
:101B700080E292E00E94880C2B013C0180E292E01E
:101B80000E94090C4B015C0165E271E0CE010196F7
:101B90000E94690393018201B501A401CE0101965F
:101BA0000E94AB0BCE0101960E9464038DE092E08F
:101BB0000E94880C2B013C018DE092E00E94090CF0
:101BC0004B015C016CE171E0CE0101960E9469035A
:101BD00093018201B501A401CE0101960E94AB0BD5
:101BE000CE0101960E946403809159020E94ED0289
:101BF0008C016BE572E0CE0101960E946903B80189
:101C0000110F880B990B0E94E411AB01BC0100E09D
:101C100010E020EC3FE7CE0101960E94AB0BCE0115
:101C200001960E946403809111010E94ED028C01D3
:101C300063E171E0CE0101960E946903B801110FC2
:101C4000880B990B0E94E411AB01BC0100E010E08D
:101C500020EC3FE7CE0101960E94AB0BCE0101962E
:101C60000E946403809108010E94ED028C016AE0E9
:101C700071E0CE0101960E946903B801110F880B33
:101C8000990B0E94E411AB01BC0100E010E020ECD4
:101C90003FE7CE0101960E94AB0BCE0101960E9458
:101CA00064030E94290A60ED77E080E090E00E94E2
:101CB0006106E114F10409F415CF0E94000012CF6F
:101CC0008AE091E00E94640383E191E00E94640352
:101CD0008BE592E00E9464038CE191E00E94640332
:101CE00085E291E00E9464038EE291E00E94640329
:101CF00087E391E00C946403EFEFF1E0138212822A
:101D000088EE93E0A0E0B0E084839583A683B78358
:101D100088E491E09183808369E571E087E391E055
:101D20000E94200661E671E08EE291E00E942006AA
:101D300069E671E085E291E00E94200661E771E0CA
:101D40008CE191E00E94200669E771E08BE592E06A
:101D50000E94200664E871E083E191E00E94200681
:101D60006FE871E08AE091E00E9420066091350101
:101D700086E492E00E94830760912C0183E392E065
:101D80000E9483076091230180E292E00E94830712
:101D900060911A018DE092E00C948307F8940C9402
:101DA0006A130F931F93CF93DF938230910510F442
:101DB00082E090E0E0916402F091650220E030E082
:101DC000A0E0B0E0309719F1408151810281138188
:101DD00048175907C8F08417950769F4109731F030
:101DE00012960C93129713961C9327C000936402CB
:101DF0001093650222C02115310519F042175307CF
:101E000018F49A01BD01EF01DF01F801DBCF2115C4
:101E10003105F9F0281B390B2430310580F48A8113
:101E20009B816115710521F0FB019383828304C0BE
:101E30009093650280936402FE01329644C0FE01D5
:101E4000E20FF31F81939193225031093983288344
:101E50003AC02091620230916302232B41F4209119
:101E6000400130914101309363022093620220913E
:101E70003E0130913F012115310541F42DB73EB7A8
:101E80004091420150914301241B350BE0916202C5
:101E9000F0916302E217F307A0F42E1B3F0B281703
:101EA000390778F0AC014E5F5F4F2417350748F0D3
:101EB0004E0F5F1F50936302409362028193919390
:101EC00002C0E0E0F0E0CF01DF91CF911F910F91D0
:101ED0000895CF93DF93009709F481C0FC013297F6
:101EE00013821282A0916402B0916502109781F46E
:101EF00020813181820F931F209162023091630211
:101F00002817390751F5F0936302E093620267C026
:101F1000ED0120E030E0CE17DF0740F44A815B811D
:101F20009E0141155105F1F0EA01F5CFD383C2833B
:101F300040815181840F951FC817D90759F48881B2
:101F40009981840F951F0296918380838A819B815A
:101F5000938382832115310529F4F0936502E09380
:101F600064023DC0E901FB83EA8349915991C40FA2
:101F7000D51FEC17FD0761F480819181840F951FB7
:101F80000296E90199838883828193819B838A8366
:101F9000E0E0F0E012968D919C911397009719F074
:101FA000FD01DC01F7CF8D919C9111979D012E5F72
:101FB0003F4F820F931F20916202309163022817D6
:101FC000390769F4309729F410926502109264027F
:101FD00002C013821282B0936302A0936202DF9167
:101FE000CF910895A0E0B0E0E8EFFFE00C94371344
:101FF000EC01009721F4CB010E94D10EB4C0FC018A
:10200000E60FF71F9C0122503109E217F30708F48D
:10201000A8C0D9010D911C91119706171707B0F0B0
:102020000530110508F49BC0C8010497861797076F
:1020300008F495C002501109061B170B0193119368
:102040006D937C93CF010E94690F89C05B01A01A38
:10205000B10A4C01800E911EA0916402B0916502FC
:10206000612C712CE12CF12C109709F446C08D9154
:102070009C911197A815B905B1F56C0142E0C40E09
:10208000D11CCA14DB0478F14C018A189B08640146
:1020900042E0C40ED11C1296BC9012971396AC91DC
:1020A000B5E0CB16D10440F0B282A3839182808246
:1020B000D9016D937C9309C00E5F1F4F800F911F54
:1020C000F90191838083EB2DFA2FE114F10431F0B3
:1020D000D7011396FC93EE93129741C0F0936502DB
:1020E000E09364023CC06816790608F43C017D0167
:1020F00012960D90BC91A02DB7CF80916202909165
:10210000630288169906E1F466167706C8F4809192
:102110003E0190913F01009741F48DB79EB74091E9
:10212000420150914301841B950BE817F907C8F44D
:10213000F0936302E0936202F901718360830FC040
:10214000CB010E94D10E7C01009759F0A801BE017D
:102150000E94B810CE010E94690FC70104C0CE01D1
:1021600002C080E090E0CDB7DEB7EEE00C945313F0
:10217000FB01DC0102C001900D9241505040D8F7A4
:102180000895FB01DC0101900D920020E1F7089514
:102190005058BB27AA270E94E0100C945A120E94A4
:1021A0004C1238F00E94531220F039F49F3F19F47A
:1021B00026F40C9449120EF4E095E7FB0C944312BC
:1021C000E92F0E946B1258F3BA176207730784074E
:1021D000950720F079F4A6F50C948D120EF4E09595
:1021E0000B2EBA2FA02D0B01B90190010C01CA01D1
:1021F000A0011124FF27591B99F0593F50F4503E7C
:1022000068F11A16F040A22F232F342F4427585F6D
:10221000F3CF469537952795A795F0405395C9F785
:102220007EF41F16BA0B620B730B840BBAF091503D
:10223000A1F0FF0FBB1F661F771F881FC2F70EC0DC
:10224000BA0F621F731F841F48F4879577956795AF
:10225000B795F7959E3F08F0B0CF9395880F08F09B
:102260009927EE0F9795879508950E941F1208F4FD
:1022700081E008950E944E110C945A120E9453124C
:1022800058F00E944C1240F029F45F3F29F00C9462
:10229000431251110C948E120C9449120E946B122D
:1022A00068F39923B1F3552391F3951B550BBB2785
:1022B000AA2762177307840738F09F5F5F4F220FCA
:1022C000331F441FAA1FA9F335D00E2E3AF0E0E8C1
:1022D00032D091505040E695001CCAF72BD0FE2F0B
:1022E00029D0660F771F881FBB1F2617370748079F
:1022F000AB07B0E809F0BB0B802DBF01FF27935857
:102300005F4F3AF09E3F510578F00C9443120C94C5
:102310008E125F3FE4F3983ED4F3869577956795E8
:10232000B795F7959F5FC9F7880F911D969587958B
:1023300097F90895E1E0660F771F881FBB1F6217AA
:1023400073078407BA0720F0621B730B840BBA0B68
:10235000EE1F88F7E09508950E94B3116894B111BB
:102360000C948E1208950E94731288F09F5798F073
:10237000B92F9927B751B0F0E1F0660F771F881F8A
:10238000991F1AF0BA95C9F714C0B13091F00E94A4
:102390008D12B1E008950C948D12672F782F882745
:1023A000B85F39F0B93FCCF3869577956795B395CB
:1023B000D9F73EF490958095709561957F4F8F4F3A
:1023C0009F4F0895E89409C097FB3EF4909580953F
:1023D000709561957F4F8F4F9F4F9923A9F0F92FEB
:1023E00096E9BB279395F695879577956795B79569
:1023F000F111F8CFFAF4BB0F11F460FF1BC06F5F4F
:102400007F4F8F4F9F4F16C0882311F096E911C060
:10241000772321F09EE8872F762F05C0662371F081
:1024200096E8862F70E060E02AF09A95660F771F95
:10243000881FDAF7880F9695879597F90895990F71
:102440000008550FAA0BE0E8FEEF16161706E8077E
:10245000F907C0F012161306E407F50798F0621B9F
:10246000730B840B950B39F40A2661F0232B242B74
:10247000252B21F408950A2609F4A140A6958FEF93
:10248000811D811D089597F99F6780E870E060E0E5
:1024900008959FEF80EC089500240A9416161706FD
:1024A00018060906089500240A9412161306140645
:1024B00005060895092E0394000C11F4882352F0A8
:1024C000BB0F40F4BF2B11F460FF04C06F5F7F4F60
:1024D0008F4F9F4F089557FD9058440F551F59F047
:1024E0005F3F71F04795880F97FB991F61F09F3F01
:1024F00079F087950895121613061406551FF2CF2A
:102500004695F1DF08C0161617061806991FF1CF79
:1025100086957105610508940895E894BB276627A0
:102520007727CB0197F908950E941F1208F48FEFC7
:1025300008950E94AC120C945A120E944C1238F06A
:102540000E94531220F0952311F00C9443120C9426
:10255000491211240C948E120E946B1270F3959FF5
:10256000C1F3950F50E0551F629FF001729FBB278A
:10257000F00DB11D639FAA27F00DB11DAA1F649F26
:102580006627B00DA11D661F829F2227B00DA11DD9
:10259000621F739FB00DA11D621F839FA00D611D5F
:1025A000221F749F3327A00D611D231F849F600D80
:1025B000211D822F762F6A2F11249F5750409AF0A9
:1025C000F1F088234AF0EE0FFF1FBB1F661F771F35
:1025D000881F91505040A9F79E3F510580F00C9400
:1025E00043120C948E125F3FE4F3983ED4F3869529
:1025F00077956795B795F795E7959F5FC1F7FE2BA0
:10260000880F911D9695879597F908950E941F123E
:10261000880B990B0895A1E21A2EAA1BBB1BFD0182
:102620000DC0AA1FBB1FEE1FFF1FA217B307E407B1
:10263000F50720F0A21BB30BE40BF50B661F771F09
:10264000881F991F1A9469F76095709580959095E9
:102650009B01AC01BD01CF010895EE0FFF1F059056
:10266000F491E02D09942F923F924F925F926F92D6
:102670007F928F929F92AF92BF92CF92DF92EF9212
:10268000FF920F931F93CF93DF93CDB7DEB7CA1B93
:10269000DB0B0FB6F894DEBF0FBECDBF09942A88BE
:1026A000398848885F846E847D848C849B84AA8466
:1026B000B984C884DF80EE80FD800C811B81AA81F3
:1026C000B981CE0FD11D0FB6F894DEBF0FBECDBFBE
:1026D000ED01089511E0C1E8D1E004C0FE010E94BF
:0E26E0002D132196C238D107C9F7F894FFCF09
:1026EE0000E10000000000000200000000000000F9
:1026FE0000010000000000000000070000000000C4
:10270E0000000006000000000000000005000000B0
:10271E0000000000000400000000000000000000A7
:10272E0066022000000000001407C50256021C02BB
:10273E003F02110263027C7C0064687431315F31A8
:10274E000064687431315F320064687431315F3314
:10275E000064687431315F34006D6F697374757223
:10276E00655F31006D6F6973747572655F32006DF0
:10277E006F6973747572655F33006E616E00696E9A
:0A278E0066006F7666002E003D0025
:00000001FF
