:100000000C942B010C9453010C9453010C94530148
:100010000C9453010C9453010C9453010C94530110
:100020000C9453010C9453010C94C9040C943405A2
:100030000C9453010C9453010C9453010C945301F0
:100040000C9453010C9453010C9453010C945301E0
:100050000C9453010C9453010C9453010C94C70657
:100060000C9453010C9453010C9453010C945301C0
:100070000C9453010C9453010C9453010C945301B0
:100080000C9453010C9453010C9453010C945301A0
:100090000C9453010C9453010C9453010C94530190
:1000A0000C9453010C9453010C945301080B00025F
:1000B0000202010009040000010202000005240000
:1000C0001001052401010104240206052406000193
:1000D0000705810310004009040100020A00000026
:1000E00007050202400000070583024000000904E2
:1000F0000200010300000009210101000122650046
:100100000705840340000105010902A1010901A1BD
:1001100000850105091901290315002501950375BD
:100120000181029501750581030501093009310935
:10013000381581257F750895038106C0C005010922
:1001400006A1018502050719E029E71500250175BB
:1001500001950881029501750881039506750815BA
:100160000025650507190029658100C012010002FC
:100170000200004041233680000101020001180303
:10018000410072006400750069006E006F0020007D
:100190004C004C0043000403090422034100720098
:1001A0006400750069006E006F0020004C0065005F
:1001B0006F006E006100720064006F0012010002A7
:1001C000000000404123368000010102000100C10F
:1001D0008081C100000000000000002A2B280000E0
:1001E000000000000000000000000000000000000F
:1001F0000000002C9EB4A0A1A2A434A6A7A5AE36F0
:100200002D3738271E1F20212223242526B333B65D
:100210002EB7B89F8485868788898A8B8C8D8E8F30
:10022000909192939495969798999A9B9C9D2F3133
:1002300030A3AD350405060708090A0B0C0D0E0F97
:10024000101112131415161718191A1B1C1DAFB113
:10025000B0B50000110711241FBECFEFDAE0DEBFFA
:10026000CDBF11E0A0E0B1E0E4E4F0E102C0059010
:100270000D92AA31B107D9F721E0AAE1B1E001C09E
:100280001D92AD37B207E1F711E0CBE2D1E004C037
:100290002197FE010E941A08CA32D107C9F70E94AD
:1002A00022070C94F5070C940000EF92FF921F9325
:1002B000CF93DF93EC01162FE881F9810480F5815B
:1002C000E02D09957C01E881F9810680F781E02D18
:1002D000612FCE010995C7019927DF91CF911F9119
:1002E000FF90EF9008950F931F93CF93DF93DB015F
:1002F000A40FB51FFB016EEFEA17FB0791F187FF13
:1003000002C0249101C0208100916A0110916B010B
:10031000C0916801D09169010C171D07B4F4909148
:10032000E8009570E1F39091E80092FD1CC02093E5
:10033000F10020916A0130916B012F5F3F4F2F73C5
:100340003327232B11F46093E80020916A01309148
:100350006B012F5F3F4F30936B0120936A01319601
:10036000CBCFCA0102C08FEF9FEFDF91CF911F91DA
:100370000F91089542E450E06CEA70E080E80E943A
:10038000730149E150E06EEE70E080E80E94730175
:1003900083E090E00895615030F02091F100FC017D
:1003A00020830196F8CF289884E680936C01089505
:1003B00083E08093E9008091F200882319F08AE3BA
:1003C0008093E80008952091630130916401809149
:1003D00065019091660128173907A9F0E091650140
:1003E000F0916601ED5DFE4F8081209165013091B5
:1003F00066012F5F3F4F2F733327309366012093A1
:10040000650190E008958FEF9FEF089520916301BB
:100410003091640180916501909166012817390738
:1004200049F0E0916501F0916601ED5DFE4F80813C
:1004300090E008958FEF9FEF089580916301909170
:1004400064012091650130916601821B930B8F73CB
:1004500099270895CF93DF931F92CDB7DEB7809190
:1004600063019091640101968F73992772E05BE6B6
:10047000A4E620916501309166018217930709F483
:1004800046C020916E01211123C02FEF3FEF09C01C
:1004900021153105A9F56FBF21303105B1F729814B
:1004A00030E02F3F4FEF340791F1E0916301F0917D
:1004B0006401ED5DFE4F208390936401809363019E
:1004C000809163019091640101968F739927D1CF38
:1004D0006FB7F8947093E9002091F20030E01216A3
:1004E000130614F421E030E0422FFE013196415012
:1004F00078F22898A0936C01B091F100B193F7CFF6
:100500004091F2004111C7CF5093E800C4CF0F9043
:10051000DF91CF9108950895CF92DF92EF92FF92ED
:100520000F931F93CF93DF936C01EB017B01E40EDC
:10053000F51E00E010E0CE15DF0561F06991D601EF
:10054000ED91FC910190F081E02DC6010995080F15
:10055000191FF1CFC801DF91CF911F910F91FF902B
:10056000EF90DF90CF9008953FB7F89480911F01EE
:1005700090912001A0912101B091220126B5A89B64
:1005800005C02F3F19F00196A11DB11D3FBFBA2F25
:10059000A92F982F8827820F911DA11DB11DBC0185
:1005A000CD0142E0660F771F881F991F4A95D1F74A
:1005B0000895CF92DF92EF92FF92CF93DF936B017A
:1005C0007C010E94B402EB01C114D104E104F104E6
:1005D00079F00E94B4026C1B7D0B683E7340A0F35F
:1005E00081E0C81AD108E108F108C851DC4FECCF0E
:1005F000DF91CF91FF90EF90DF90CF9008957F92A1
:100600008F929F92AF92BF92CF92DF92EF92FF9222
:100610000F931F93CF93DF93D82E8B017A01809194
:100620006E01882391F0C42FDF2D8AEFC82E8D2D07
:100630008770B82E90E4992E8D2D8072882E2AE333
:10064000A22E8D2D8074782E1BC08FEF9FEF56C089
:100650008FB7F894B092E9009091E80095FF13C02D
:100660009091F200292D291B8FBF21110EC0CA9431
:10067000CC2059F361E070E080E090E00E94D90264
:10068000209731F732C020E0EFCF822F90E0C817DB
:10069000D9070CF42C2F822F90E0C81BD90B3FB741
:1006A000F894B092E900882029F02150A0F010922F
:1006B000F100FBCFF801D7FE0AC0215050F0449161
:1006C0004093F1003196F9CF41914093F1002150D0
:1006D000D8F7080F191F8091E80085FF0CC02097FC
:1006E00011F4711008C03FBFCBCF5D9884E68093B2
:1006F0006D01C70103C0A092E800F5CFDF91CF9153
:100700001F910F91FF90EF90DF90CF90BF90AF902F
:100710009F908F907F9008950F931F93CF93DF93B7
:100720001F92CDB7DEB78C01FC01168217821086AE
:10073000118612861386148282E0898341E050E09C
:10074000BE016F5F7F4F84E00E94FF02B8016C5FC3
:100750007F4F48E050E084E40E94FF020F90DF9159
:10076000CF911F910F9108950F931F93CF93DF9314
:100770001F92CDB7DEB7DC01683810F068582DC085
:10078000E62FF0E067FF11C0E058F10981E090E04A
:1007900001C0880FEA95EAF714969C911497892B6B
:1007A00014968C93149760E018C0ED52FE4F64913C
:1007B000611109C081E090E013969C938E9312978B
:1007C00080E090E04EC067FF08C014968C911497AB
:1007D000826014968C9314976F7716968C91169767
:1007E000681751F117968C911797681729F1189689
:1007F0008C911897681701F119968C9119976817C1
:10080000D9F01A968C911A976817B1F01B968C91B3
:100810001B97681789F0FD01369680E090E02191E2
:10082000211105C0FD01E80FF91F668305C001967F
:1008300086309105A1F7BECF8D0182E0898341E02A
:1008400050E0BE016F5F7F4F84E00E94FF02B8015D
:100850006C5F7F4F48E050E084E40E94FF0281E03B
:1008600090E00F90DF91CF911F910F9108950F931A
:100870001F93CF93DF931F92CDB7DEB7DC016838AB
:1008800010F0685825C0E62FF0E067FF12C0E0586E
:10089000F10981E090E001C0880FEA95EAF78095C0
:1008A00014969C911497892314968C93149760E066
:1008B0000FC0ED52FE4F6491662361F167FF08C0DF
:1008C00014968C9114978D7F14968C9314976F7750
:1008D000FD0186E0662321F09681691301C016822E
:1008E000815031968111F6CF8D0182E0898341E0FC
:1008F00050E0BE016F5F7F4F84E00E94FF02B801AD
:100900006C5F7F4F48E050E084E40E94FF0281E08A
:1009100090E002C080E090E00F90DF91CF911F91B6
:100920000F9108950F931F93CF93DF931F92CDB72D
:10093000DEB78C01698380910701882359F041E07B
:1009400050E0BE016F5F7F4F83E00E94FF021816E8
:1009500019063CF081E090E0F8019383828380E007
:1009600090E00F90DF91CF911F910F910895009724
:1009700069F0FC0101900020E9F73197AF01481BB5
:10098000590BBC018FE691E00C948C0280E090E062
:1009900008951F920F920FB60F9211242F933F9339
:1009A0004F935F936F937F938F939F93AF93BF9377
:1009B000EF93FF938091E1001092E10083FF0FC05D
:1009C0001092E90091E09093EB001092EC0092E31A
:1009D0009093ED0010926E0198E09093F00082FFEA
:1009E00032C083E08093E9008091F200882319F0FF
:1009F0008AE38093E8009FB7F89482E08093E9004F
:100A00008091F2009FBF882321F08FE691E00E9441
:100A10002A0280916D01882339F080916D01815007
:100A200080936D01882369F080916C01882359F0CF
:100A300080916C01815080936C01811104C0289ACF
:100A400002C05D9AF1CFFF91EF91BF91AF919F915D
:100A50008F917F916F915F914F913F912F910F9067
:100A60000FBE0F901F9018951F920F920FB60F9206
:100A70001124EF92FF921F932F933F934F935F9315
:100A80006F937F938F939F93AF93BF93EF93FF9356
:100A9000CF93DF93CDB7DEB76197DEBFCDBF1092A6
:100AA000E9008091E80083FF56C168E0CE010A9614
:100AB0000E94CB0182EF8093E8009A8597FF05C0E2
:100AC0008091E80080FFFCCF03C08EEF8093E800A8
:100AD000892F807609F0B2C08B85811105C01092F4
:100AE000F1001092F10030C1282F2D7F213009F440
:100AF0002BC1853049F48091E80080FFFCCF8C85C4
:100B000080688093E30020C1863009F06DC01D85A8
:100B1000E888F9881092E90010926B0110926A013E
:100B2000123091F510926901109268010E94BA0189
:100B300099E0BE016F5F7F4FFB01292F11922A952B
:100B4000E9F799831A8391E09E8390E898879AEF5A
:100B5000998720916A0130916B01275F3F4F3C8359
:100B60002B838D831092E90010926B0110926A0121
:100B7000F0926901E092680149E050E080E00E9453
:100B800073010E94BA01E0C0F0926901E09268012D
:100B9000123259F445E650E067E071E080E80E94C7
:100BA0007301892B09F4D4C0CFC0113069F488894E
:100BB0009989089711F41093670180916701811159
:100BC000B5C06CEB71E0BAC0133009F0C1C08C85C0
:100BD000882309F4AEC0823009F4AEC0813009F038
:100BE000B7C06EE771E0AAC0873009F4B1C08830A1
:100BF00021F481E08093F100A7C0893009F0A4C0FE
:100C0000937009F0A5C0EFECF1E081E031E096E3EC
:100C10008093E9003093EB0024912093EC009093B3
:100C2000ED008F5F3196853099F78EE78093EA006B
:100C30001092EA008C8580936E0186C0888999891C
:100C40001092E90010926B0110926A019093690171
:100C5000809368018E85811159C08B859A85913A60
:100C600049F4813209F074C047E050E060E071E07F
:100C700080E068C0913209F06BC0803269F48091E5
:100C8000E80082FFFCCF67E080E091E00E94CB01AA
:100C90008BEF8093E80058C0823209F059C08C85F0
:100CA000809307018091000190910101A0910201C0
:100CB000B0910301803B9440A105B10509F044C007
:100CC0008091070180FD11C087E797E790930108A5
:100CD000809300089BE088E10FB6F894A895809374
:100CE00060000FBE909360002FC00FB6F894A895D7
:100CF00080916000886180936000109260000FBE58
:100D0000A89510920108109200081EC0823001F5CB
:100D10008B859A85913A21F48D7F8130C9F414C076
:100D20009132B1F48A50823098F40EC06CE671E0D2
:100D300005C066E971E002C06AE971E0FB01449117
:100D400050E080E80E9473018EEF8093E80003C0BA
:100D500081E28093EB0061960FB6F894DEBF0FBE80
:100D6000CDBFDF91CF91FF91EF91BF91AF919F9157
:100D70008F917F916F915F914F913F912F911F9133
:100D8000FF90EF900F900FBE0F901F9018951F923D
:100D90000F920FB60F9211242F933F938F939F932F
:100DA000AF93BF9380911B0190911C01A0911D01F5
:100DB000B0911E0130911A0123E0230F2D3720F44A
:100DC0000196A11DB11D05C026E8230F0296A11DA5
:100DD000B11D20931A0180931B0190931C01A093D5
:100DE0001D01B0931E0180911F0190912001A091DF
:100DF0002101B09122010196A11DB11D80931F0117
:100E000090932001A0932101B0932201BF91AF9153
:100E10009F918F913F912F910F900FBE0F901F9038
:100E20001895EFE6F1E01382128288EE93E0A0E0DD
:100E3000B0E084839583A683B7838CE091E09183AF
:100E400080830895CF93DF93CDB7DEB7A1970FB618
:100E5000F894DEBF0FBECDBF789484B5826084BDA8
:100E600084B5816084BD85B5826085BD85B58160AE
:100E700085BD80916E00816080936E00109281002C
:100E800080918100826080938100809181008160E7
:100E900080938100809180008160809380008091A8
:100EA0009100826080939100809191008160809395
:100EB0009100809190008160809390008091C100AA
:100EC00084608093C1008091C10082608093C100E2
:100ED0008091C10081608093C1008091C3008160D6
:100EE0008093C3008091C00082608093C000809195
:100EF000C20081608093C20080917A0084608093F8
:100F00007A0080917A00826080937A0080917A00E2
:100F1000816080937A0080917A00806880937A0063
:100F200010926E0181E08093D70080EA8093D80010
:100F300082E189BD09B400FEFDCF61E070E080E090
:100F400090E00E94D90280E98093D8008CE08093E1
:100F5000E2001092E000559A209A8AE0482E512C27
:100F6000612C712C6E018DE1C80ED11C90E0A92E70
:100F700090E0B92E19A27E01E1E2EE0EF11C18EE0E
:100F800073E080E090E0612FA30192010E94F807D6
:100F9000FAE02F9F1019112481E0E81AF1081A30A5
:100FA00014F4105D01C0195CF7011083122F732F28
:100FB000CA01EC14FD0439F7C6010E94B7046DE0C4
:100FC0008FE691E00E9492046AE08FE691E00E9431
:100FD000920468EE73E080E090E00E94D902A114D0
:100FE000B10441F20E940000C5CFF8940C9420088F
:100FF000A1E21A2EAA1BBB1BFD010DC0AA1FBB1F1D
:10100000EE1FFF1FA217B307E407F50720F0A21B8E
:10101000B30BE40BF50B661F771F881F991F1A94FB
:1010200069F760957095809590959B01AC01BD0125
:10103000CF010895EE0FFF1F0590F491E02D099464
:04104000F894FFCF52
:1010440000E10000000000000000000092048C0297
:0A1054001D02E3010602D8012A0282
:00000001FF
